:100000000C9462000C948A000C948A000C948A0070
:100010000C948A000C948A000C948A000C948A0038
:100020000C948A000C948A000C948A000C948A0028
:100030000C948A000C948A000C948A000C948A0018
:100040000C9492040C948A000C9460040C943A046E
:100050000C948A000C948A000C948A000C948A00F8
:100060000C948A000C948A000000000024002700F1
:100070002A0000000000250028002B0000000000DE
:1000800023002600290004040404040404040202DA
:100090000202020203030303030301020408102007
:1000A0004080010204081020010204081020000012
:1000B0000008000201000003040700000000000027
:1000C0000000DC0411241FBECFEFD8E0DEBFCDBF9F
:1000D00011E0A0E0B1E0E8E1FEE002C005900D9281
:1000E000AE31B107D9F721E0AEE1B1E001C01D9218
:1000F000AE3DB207E1F710E0C2E6D0E004C02197C0
:10010000FE010E94F006C136D107C9F70E944105E1
:100110000C940A070C940000AF92BF92CF92DF922A
:10012000EF92FF920F931F93CF93DF936C017B01AC
:100130008B01040F151FEB015E01AE18BF08C0173D
:10014000D10759F06991D601ED91FC910190F081B0
:10015000E02DC6010995892B79F7C501DF91CF9173
:100160001F910F91FF90EF90DF90CF90BF90AF90D5
:100170000895FC01538D448D252F30E0842F90E0AD
:10018000821B930B541710F0CF9608950197089592
:10019000FC01918D828D981761F0A28DAE0FBF2F5B
:1001A000B11D5D968C91928D9F5F9F73928F90E0B1
:1001B00008958FEF9FEF0895FC01918D828D981720
:1001C00031F0828DE80FF11D858D90E008958FEF5D
:1001D0009FEF0895FC01918D228D892F90E0805C26
:1001E0009F4F821B91098F739927089587E291E0B1
:1001F0000E94EA0021E0892B09F420E0822F089573
:1002000080E090E0892B29F00E94F60081110C9487
:1002100000000895FC01A48DA80FB92FB11DA35AA9
:10022000BF4F2C91848D90E001968F739927848F16
:10023000A689B7892C93A089B1898C918370806439
:100240008C93938D848D981306C00288F389E02DDA
:1002500080818F7D80830895EF92FF920F931F938B
:10026000CF93DF93EC0181E0888F9B8D8C8D981369
:100270001AC0E889F989808185FF15C09FB7F89475
:10028000EE89FF896083E889F989808183708064C1
:1002900080839FBF81E090E0DF91CF911F910F910C
:1002A000FF90EF900895F62E0B8D10E00F5F1F4F1B
:1002B0000F731127E02E8C8D8E110CC00FB607FC2A
:1002C000FACFE889F989808185FFF5CFCE010E94B8
:1002D0000A01F1CFEB8DEC0FFD2FF11DE35AFF4F1B
:1002E000F0829FB7F8940B8FEA89FB898081806246
:1002F000CFCFCF93DF93EC01888D8823B9F0AA8903
:10030000BB89E889F9898C9185FD03C0808186FDD0
:100310000DC00FB607FCF7CF8C9185FFF2CF80811F
:1003200085FFEDCFCE010E940A01E9CFDF91CF9189
:100330000895833081F028F4813099F08230A9F05B
:1003400008958730A9F08830C9F08430B1F48091E5
:1003500080008F7D03C0809180008F778093800024
:10036000089584B58F7784BD089584B58F7DFBCFC4
:100370008091B0008F778093B00008958091B00095
:100380008F7DF9CF1F93CF93DF93282F30E0F901B2
:10039000E255FF4F8491F901E656FF4FD491F901E0
:1003A000EA57FF4FC491CC23A9F0162F81110E9468
:1003B0009901EC2FF0E0EE0FFF1FEE58FF4FA591D3
:1003C000B4918FB7F894EC91111108C0D095DE2349
:1003D000DC938FBFDF91CF911F910895DE2BF8CF73
:1003E000CF93DF93EC018091CC019091CD010297E6
:1003F00049F4C130D10509F43BC06CF560E02097A9
:1004000009F437C08091CC019091CD01049749F453
:10041000C130D10509F45CC00CF037C0209709F455
:1004200042C08091CC019091CD01059709F0E5C0C3
:10043000CA30D10508F0E1C0FE01EF5DFD4F0C941C
:10044000F00680028C029D02B302CE02D002D702D7
:10045000E302F402FB02C230D105A9F060E0C33030
:10046000D10581F68091D0010E94C20160E006C0F2
:1004700061E08091D0010E94C20161E08091D201CF
:100480000E94C201BFCF61E0EDCFC230D10539F18A
:10049000C330D10509F0C5CF61E08091D0010E9441
:1004A000C20160E022C061E08091D0010E94C201DF
:1004B00060E08091D2010E94C20161E08091D4018C
:1004C0000E94C20160E08091D6010E94C201A9CFC2
:1004D00060E08091D0010E94C20161E0EACF60E05B
:1004E0008091D0010E94C20161E08091D2010E94FE
:1004F000C20160E08091D4010E94C20161E0E3CFBB
:1005000060E08091D0010E94C20161E08091D2013F
:100510000E94C20161E00BC060E08091D0010E94A6
:10052000C20161E08091D2010E94C20160E080912D
:10053000D4010E94C20160E010C060E08091D0014F
:100540000E94C20161E08091D2010E94C20160E07C
:100550008091D4010E94C20161E08091D6010E9485
:10056000C20161E015C060E08091D0010E94C2012B
:1005700061E08091D2010E94C20160E08091D401CB
:100580000E94C20161E08091D6010E94C20160E038
:100590008091D801DF91CF910C94C20161E0E4CF4A
:1005A00061E08091D0010E94C20160E0E2CF61E091
:1005B0008091D0010E94C20160E08091D2010E942E
:1005C000C20161E0DBCF61E08091D0010E94C201F5
:1005D00060E08091D2010E94C20161E08091D4016B
:1005E0000E94C20160E0CFCF61E08091D0010E9403
:1005F000C20160E08BCF60E0F8CFDF91CF9108952A
:10060000CF93DF9390E0FC01E656FF4F24918A5789
:100610009F4FFC0184918823D1F090E0880F991FAF
:10062000FC01E859FF4FA591B491FC01EE58FF4F32
:10063000C591D49161110EC09FB7F8948C91E22FAF
:10064000E0958E238C932881E223E8839FBFDF917E
:10065000CF9108958FB7F894EC91E22BEC938FBF74
:10066000F6CF3FB7F8948091230190912401A09197
:100670002501B091260126B5A89B05C02F3F19F092
:100680000196A11DB11D3FBFBA2FA92F982F882712
:10069000BC01CD01620F711D811D911D42E0660FED
:1006A000771F881F991F4A95D1F708954F925F923F
:1006B0006F927F928F929F92AF92BF92EF92FF9232
:1006C0000F931F93CF93DF93EC0197FF04C0CC27C8
:1006D000DD27C81BD90B181619060CF061C081E084
:1006E00090E09093C5018093C40104E010E08AE09B
:1006F000E82EF12C209709F46FC00E9431038090FE
:10070000DA019090DB01A090DC01B090DD012B01BB
:100710003C01481859086A087B088090C6019090EF
:10072000C701A090C801B090C901481459046A04D7
:100730007B0400F36093DA017093DB018093DC01AA
:100740009093DD018091CE019091CF012091C40161
:100750003091C5012130310559F501969093CF01B3
:100760008093CE012091CA013091CB01821793076B
:1007700021F41092CF011092CE0121978091CE01E9
:100780009091CF012091CC013091CD01B70125305E
:10079000310509F0B8010E949B060E94F001AACF22
:1007A000892B09F4A2CF1092C5011092C4019DCFEC
:1007B000892B41F48091CA019091CB019093CF0194
:1007C0008093CE018091CE019091CF0101979093BB
:1007D000CF018093CE01D1CFDF91CF911F910F91A7
:1007E000FF90EF90BF90AF909F908F907F906F9011
:1007F0005F904F9008958F929F92AF92BF92CF9249
:10080000DF92EF92FF924B015C010E9431036B017A
:100810007C010E9431036C197D098E099F09683E95
:10082000734081059105A8F321E0821A9108A1087F
:10083000B10888EEC80E83E0D81EE11CF11C8114BB
:100840009104A104B10429F7FF90EF90DF90CF90BD
:10085000BF90AF909F908F900895FC010190002071
:10086000E9F73197AF01481B590BBC0187E291E0D2
:100870000C948C001F920F920FB60F9211242F939D
:100880003F934F935F936F937F938F939F93AF9318
:10089000BF93EF93FF9387E291E00E940A01FF91DB
:1008A000EF91BF91AF919F918F917F916F915F91E8
:1008B0004F913F912F910F900FBE0F901F90189561
:1008C0001F920F920FB60F9211242F938F939F9325
:1008D000EF93FF93E0913701F09138018081E0912F
:1008E0003D01F0913E0182FD1BC09081809140014D
:1008F0008F5F8F7320914101821741F0E091400199
:10090000F0E0E95DFE4F958F80934001FF91EF91FC
:100910009F918F912F910F900FBE0F901F90189560
:100920008081F4CF1F920F920FB60F9211242F9354
:100930003F938F939F93AF93BF9380911F019091AB
:100940002001A0912101B091220130911E0123E0EC
:10095000230F2D3758F50196A11DB11D20931E01BF
:1009600080931F0190932001A0932101B093220155
:100970008091230190912401A0912501B09126013D
:100980000196A11DB11D8093230190932401A09392
:100990002501B0932601BF91AF919F918F913F9117
:1009A0002F910F900FBE0F901F90189526E8230FE0
:1009B0000296A11DB11DD2CFCF93DF93E7E2F1E004
:1009C0001382128288EE93E0A0E0B0E084839583E6
:1009D000A683B78384E091E09183808385EC90E0E7
:1009E0009587848784EC90E09787868780EC90E0F9
:1009F000918B808B81EC90E0938B828B82EC90E0EA
:100A0000958B848B86EC90E0978B868B118E128E63
:100A1000138E148EC4ECD1E01B861A8619821882BC
:100A20001E8A1F8A188E198E8AE590E09F838E8316
:100A300088E090E09D878C8789E090E09F878E8793
:100A40008AE090E0998B888B8BE090E09B8B8A8B7F
:100A500061E088E00E94000361E08E850E9400034F
:100A600061E088890E94000361E08A890E94000396
:100A70001D8A1C8A84E090E099878887DF91CF9156
:100A80000895CF93DF93CDB7DEB7A1970FB6F89453
:100A9000DEBF0FBECDBF789484B5826084BD84B5BF
:100AA000816084BD85B5826085BD85B5816085BD69
:100AB00080916E00816080936E0010928100809121
:100AC00081008260809381008091810081608093A9
:100AD0008100809180008160809380008091B100CE
:100AE00084608093B1008091B00081608093B000F9
:100AF00080917A00846080937A0080917A0082608D
:100B000080937A0080917A00816080937A0080914E
:100B10007A00806880937A001092C10060E083E0E0
:100B20000E9400032091CA013091CB01032E000CDA
:100B3000440B550B60E077E883E993E00E94D1060F
:100B4000CA01B90124E630E040E050E00E94D1063D
:100B50002093C6013093C7014093C8015093C90147
:100B6000E0913701F091380182E08083E091330118
:100B7000F09134011082E0913501F09136018FEC53
:100B8000808310923F01E0913B01F0913C0186E0AF
:100B90008083E0913901F0913A0180818061808306
:100BA000E0913901F0913A01808188608083E09181
:100BB0003901F0913A01808180688083E0913901A8
:100BC000F0913A0180818F7D808391EB892E90E0B6
:100BD000992E20E4322E3AE0432E512C612C712CB8
:100BE00040E0A42E40E0B42EF4018491EDE9F0E061
:100BF0001491E9E8F0E00491002309F475C0811133
:100C00000E949901E02FF0E0EE0FFF1FE458FF4F24
:100C1000A591B4918C91182309F466C082E191E00A
:100C20000E942D0487E191E00E942D0484EF91E061
:100C30000E94560368E873E180E090E00E94FB03A5
:100C400030927C0080917A00806480937A00809159
:100C50007A0086FDFCCF90917800809179008927F9
:100C6000982789276C01092E000CEE08FF0897FFD2
:100C70004CC06DE287E291E00E942C0122273327CD
:100C8000A9012C193D094E095F0919A28E010F5DBA
:100C90001F4FCA01B901A30192010E94AF06605D16
:100CA000F80162938F01211531054105510589F73E
:100CB0000115110519F0C8010E942D0487E191E08A
:100CC0000E942D0464E670E080E090E00E94FB0347
:100CD000A114B10409F488CF0E94F600882309F416
:100CE00083CF0E94000080CF8AE191E00E942D0412
:100CF00087E191E00E942D0480E998EE0E9456035E
:100D000064EF71E080E090E099CFA701960119A20D
:100D10008E010F5D1F4FCA01B901A30192010E940C
:100D2000AF06605DF80162938F0121153105410521
:100D3000510589F7BDCF97FB072E16F4009407D015
:100D400077FD09D00E94F60607FC05D03EF4909589
:100D500081959F4F0895709561957F4F0895A1E209
:100D60001A2EAA1BBB1BFD010DC0AA1FBB1FEE1F25
:100D7000FF1FA217B307E407F50720F0A21BB30B70
:100D8000E40BF50B661F771F881F991F1A9469F7EC
:100D900060957095809590959B01AC01BD01CF0148
:100DA0000895052E97FB1EF400940E94E80657FD57
:100DB00007D00E94AF0607FC03D04EF40C94E8065F
:100DC00050954095309521953F4F4F4F5F4F089577
:100DD00090958095709561957F4F8F4F9F4F0895A7
:100DE000EE0FFF1F0590F491E02D0994AA1BBB1B89
:100DF00051E107C0AA1FBB1FA617B70710F0A61B1B
:100E0000B70B881F991F5A95A9F780959095BC013B
:080E1000CD010895F894FFCF15
:100E1800000000002C018C00B9007901EA00C8002C
:0E0E2800DC0073746F70000D0A0072756E00AE
:00000001FF
